:08075B007FBFDFEFF7FBFDFE9D
:0806DE00FF1207067F027E00F7
:1006E600E4FDFCC3ED9FEC9E5015E4FBFA0BBB004A
:0F06F600010AEB64794A70F50DBD00010C80E438
:0107050022D1
:10070600C2B6C2B5E4FEEFC4131313540124FF921C
:10071600B4EF25E0FFD2B60000C2B60EBE08E7D29F
:05072600B50000C2B5A2
:01072B0022AB
:08054B008B698A6A896B8D6CD3
:10055300E4F56FE4F56EE4FF120706E56E90075BC2
:1005630093F580AB69AA6AA96B856E8275830012C5
:1005730001121206DE056EE56EC3940840D8E4FF4F
:10058300120706E56D90075B93F580AF6C7401A8C5
:1005930007088002C333D8FC1206DE056FE56FC37C
:0405A300941440AFBD
:0105A7002231
:1003F500755C06E4F55DF55E75900FE590640F603C
:10040500777F267E001206E6E590640F606A759098
:100415000FAF90EF24F5601024FE601114601324D3
:10042500077012E4F55C800D755C018008755C024F
:100435008003755C037590F0AF90EF245060112434
:10044500E0601124F0601124707013855C5C800EEF
:100455007404800674088002740C255CF55CC3E5A1
:100465005E648094B25011E59064F0600B7F267E47
:10047500001206E6055E80E6E55C1460151460175B
:1004850014601914601B14601D2405701E755D032E
:10049500801C755D048017755D058012755D06808D
:1004A5000D755D018008755D028003E4F55DAF5D46
:0104B5002224
:1005F50000000000000000000000000000000000F6
:1006050000000000000000000000000000000000E5
:1006150000000000000000000000000000000000D5
:1006250000000000000000000000000000000000C5
:080635000000000000000000BD
:1001FE0078087C007D007BFF7A0579F57E007F080C
:10020E001200D3E4F510F511F512F51378147C00F5
:10021E00FD7BFF7A0579FDFE7F401200D3E4F55495
:10022E00F555F556F557F558755905755F00756016
:10023E000075615B7B007A00795A1206B07B007AFA
:10024E00007908855B65AD5A12063DEF4E70DC7580
:10025E0008011203F58F58E55864016093E5586460
:10026E00066012E5586405600CE55864036006E507
:10027E00586404702CE558B40305E559B4041FE521
:10028E0058B40405E559B40315E558B40605E55907
:10029E00B4050BE558B40509E559640660038558A5
:1002AE0059E55924FD606314700302034124FE6076
:1002BE0030046003020369E510B40705E4F510800D
:1002CE000205107B007A007908851160AD101206C8
:1002DE007A0555E55570020554142414F8760180FC
:1002EE007AE5107005751007800215107B007A00F4
:1002FE007908851160AD1012067A0555E555700224
:10030E000554142414F876028051E5117005751108
:10031E0007800215117B007A007908851160AD10F7
:10032E0012067A0555E55570020554142414F87614
:10033E00038028E511B40705E4F511800205117B51
:10034E00007A007908851160AD1012067A0555E520
:10035E005570020554142414F876047B007A007943
:10036E0008855B65AD5A12063DEF4E702AF55F7536
:10037E006000756112F5627563007564130557E5CB
:10038E005770020556142414F8E6F5657B007A00C2
:10039E0079081204B68024755F0075600075615B84
:1003AE007B007A00795A1206B07B007A00790885B4
:1003BE005B65AD5A12063DEF4E70DC7B007A00791C
:1003CE0008855B6DAD5A12054BE55564404554707A
:1003DE0004F554F555E55764404556600302026036
:0703EE00F556F5570202600D
:08076300000020001824000032
:10067A008D5F8B5C8A5D895E85606512063DEF4EF3
:10068A00600302072CAB5CE55E2560F9E4355DFA90
:10069A001200F9FFAE5F7401A806088002C333D8BE
:0606AA00FC4F1201612269
:1004B6008B5C8A5D895EAB5FAA60A9611200F9FF59
:1004C600AB5C255EF9E4355DFAC003C002C00112DB
:1004D60000F9FEAB62AA63A9641200F9FD7401A8D3
:1004E60005088002C333D8FCF45ED001D002D003E5
:1004F600120161E56524FE60181460221460302440
:10050600037041EDAB62AA63A964B40702802C8034
:100516002EAB62AA63A9641200F9700F8009EFABD3
:100526005FAA60A96170047407801174FF8012AB22
:100536005FAA60A9611200F9B40704E402016174BC
:050546000112013F223B
:1006B0008B5C8A5D895E1205A87C007D0712017340
:1006C000AB5CAA5DA95EED1201611205A87C007DFC
:0E06D00007120173AB5FAA60A961ED02016120
:10063D00856582758300120112FF7401A80508807B
:10064D0002C333D8FC5FFCAF0574017E00A8070818
:10065D008005C333CE33CED8F9FFEC7A00B5070948
:0C066D00EAB506057E007F0122E4FEFFD6
:01067900225E
:10072C0078617C007D007BFF7A0779637E007F080F
:10073C001200D37B007A007961756D027D0212057F
:03074C004B80F0EF
:0300000002074FA5
:0C074F00787FE4F6D8FD7581730201FE8E
:10000300E709F608DFFA8046E709F208DFFA803EDF
:1000130088828C83E709F0A3DFFA8032E309F608CC
:10002300DFFA8078E309F208DFFA807088828C8334
:10003300E309F0A3DFFA806489828A83E0A3F608E8
:10004300DFFA805889828A83E0A3F208DFFA804CC2
:1000530080D280FA80C680D4806980F28033801099
:1000630080A680EA809A80A880DA80E280CA803302
:1000730089828A83ECFAE493A3C8C582C8CCC5837A
:10008300CCF0A3C8C582C8CCC583CCDFE9DEE7804A
:100093000D89828A83E493A3F608DFF9ECFAA9F0C9
:1000A300EDFB2289828A83ECFAE0A3C8C582C8CC1F
:1000B300C583CCF0A3C8C582C8CCC583CCDFEADE38
:1000C300E880DB89828A83E493A3F208DFF980CC9A
:1000D30088F0EF60010E4E60C388F0ED2402B40493
:1000E3000050B9F582EB2402B4040050AF2323453A
:0600F3008223900053730C
:1000F900BB010689828A83E0225002E722BBFE0205
:09010900E32289828A83E4932237
:10011200BB010CE58229F582E5833AF583E02250A2
:1001220006E92582F8E622BBFE06E92582F8E222EC
:0D013200E58229F582E5833AF583E4932206
:10013F00BB010989828A83F8E028F022500327F750
:10014F0022BBFE05F8E328F3228A838982F8E49321
:02015F00282254
:10016100BB010689828A83F0225002F722BBFE017D
:02017100F32277
:10017300C2D5EC30E709B2D5E4C39DFDE49CFCEEA7
:1001830030E715B2D5E4C39FFFE49EFE1201A9C375
:10019300E49DFDE49CFC80031201A930D507C3E470
:0601A3009FFFE49EFE2216
:1005A800AC70AD71AE72AF737810EC4D4E4F7004F5
:1005B8007CA57DA5C3EC13FCED13FDEE13FEEF1334
:1005C800FF5010EC64CCFCED644CFDEE644EFEEF85
:1005D80064CEFFD8DF8C708D718E728F73EE547F6E
:0D05E800FE228E708F7174A5F572F57322DE
:1001A900BC000BBE0029EF8DF084FFADF022E4CC3A
:1001B900F875F008EF2FFFEE33FEEC33FCEE9DEC03
:1001C900984005FCEE9DFE0FD5F0E9E4CEFD22ED49
:1001D900F8F5F0EE8420D21CFEADF075F008EF2F93
:1001E900FFED33FD4007985006D5F0F222C398FD84
:0501F9000FD5F0EA2221
:00000001FF
